{
  "address": "0x5FbDB2315678afecb367f032d93F642f64180aa3",
  "abi": [
    {
      "inputs": [
        {
          "internalType": "address",
          "name": "_owner",
          "type": "address"
        }
      ],
      "stateMutability": "nonpayable",
      "type": "constructor"
    },
    {
      "inputs": [],
      "name": "YourContract__NotOwner",
      "type": "error"
    },
    {
      "inputs": [],
      "name": "YourContract__TransferFailed",
      "type": "error"
    },
    {
      "anonymous": false,
      "inputs": [
        {
          "indexed": true,
          "internalType": "address",
          "name": "greetingSetter",
          "type": "address"
        },
        {
          "indexed": false,
          "internalType": "string",
          "name": "newGreeting",
          "type": "string"
        },
        {
          "indexed": false,
          "internalType": "bool",
          "name": "premium",
          "type": "bool"
        },
        {
          "indexed": false,
          "internalType": "uint256",
          "name": "value",
          "type": "uint256"
        }
      ],
      "name": "GreetingChange",
      "type": "event"
    },
    {
      "inputs": [],
      "name": "greeting",
      "outputs": [
        {
          "internalType": "string",
          "name": "",
          "type": "string"
        }
      ],
      "stateMutability": "view",
      "type": "function"
    },
    {
      "inputs": [],
      "name": "owner",
      "outputs": [
        {
          "internalType": "address",
          "name": "",
          "type": "address"
        }
      ],
      "stateMutability": "view",
      "type": "function"
    },
    {
      "inputs": [],
      "name": "premium",
      "outputs": [
        {
          "internalType": "bool",
          "name": "",
          "type": "bool"
        }
      ],
      "stateMutability": "view",
      "type": "function"
    },
    {
      "inputs": [
        {
          "internalType": "string",
          "name": "_newGreeting",
          "type": "string"
        }
      ],
      "name": "setGreeting",
      "outputs": [],
      "stateMutability": "payable",
      "type": "function"
    },
    {
      "inputs": [],
      "name": "totalCounter",
      "outputs": [
        {
          "internalType": "uint256",
          "name": "",
          "type": "uint256"
        }
      ],
      "stateMutability": "view",
      "type": "function"
    },
    {
      "inputs": [
        {
          "internalType": "address",
          "name": "",
          "type": "address"
        }
      ],
      "name": "userGreetingCounter",
      "outputs": [
        {
          "internalType": "uint256",
          "name": "",
          "type": "uint256"
        }
      ],
      "stateMutability": "view",
      "type": "function"
    },
    {
      "inputs": [],
      "name": "withdraw",
      "outputs": [],
      "stateMutability": "nonpayable",
      "type": "function"
    },
    {
      "stateMutability": "payable",
      "type": "receive"
    }
  ],
  "transactionHash": "0xef42819a87f62c380c197aee6b4b98937ce87d412074c8d529d47b2427aff18a",
  "args": [
    "0xf39Fd6e51aad88F6F4ce6aB8827279cffFb92266"
  ],
  "numDeployments": 1,
  "solcInputHash": "e6f6cf4e327de06e7d43bfc3a460ce38",
  "bytecode": "0x60a03461013157601f61081638819003918201601f19168301916001600160401b038311848410176101365780849260209460405283398101031261013157516001600160a01b038116810361013157600054600181811c91168015610127575b602082101461011157601f81116100c8575b507f48656c6c6f20576f726c6421000000000000000000000000000000000000001860009081556001805460ff191690556002556080526040516106c9908161014d82396080518181816104e8015261052a0152f35b60008052601f0160051c7f290decd9548b62a8d60345a988386fc84ba6bc95484008f6362f93160ef3e563908101905b8181106101055750610072565b600081556001016100f8565b634e487b7160e01b600052602260045260246000fd5b90607f1690610060565b600080fd5b634e487b7160e01b600052604160045260246000fdfe6080604052600436101561001b575b361561001957600080fd5b005b60003560e01c80633ccfd60b146105175780638da5cb5b146104d257806397feba9d146104b4578063a4136862146101a3578063cea49c3c14610165578063e0a73a93146101425763ef690cc00361000e573461013d57600036600319011261013d576040516000805461008e816105f8565b808452906001811690811561011957506001146100ce575b6100ca836100b6818503826105ba565b604051918291602083526020830190610632565b0390f35b6000808052600080516020610674833981519152939250905b8082106100ff575090915081016020016100b66100a6565b9192600181602092548385880101520191019092916100e7565b60ff191660208086019190915291151560051b840190910191506100b690506100a6565b600080fd5b3461013d57600036600319011261013d57602060ff600154166040519015158152f35b3461013d57602036600319011261013d576004356001600160a01b0381169081900361013d5760005260036020526020604060002054604051908152f35b602036600319011261013d5760043567ffffffffffffffff811161013d573660238201121561013d5780600401356101da816105dc565b916101e860405193846105ba565b818352366024838301011161013d57816000926024602093018386013783010152606060008060405161021b84826105ba565b602181527f53657474696e67206e6577206772656574696e6720272573272066726f6d20256020820152607360f81b60408201526040516102a18161028d61027b60208301956395ed019560e01b87528960248501526084840190610632565b82810360231901604484015289610632565b33606483015203601f1981018352826105ba565b51906a636f6e736f6c652e6c6f675afa50815167ffffffffffffffff811161049e576102ce6000546105f8565b601f8111610432575b50806020601f82116001146103c2576000916103b7575b508160011b916000199060031b1c1916176000555b600254600181018091116103a1576002553360005260036020526040600020908154600181018091116103a1577f94cbd7e04dca26a7667654f6448b2ca0a40fec602118dc5fd8c82b9cf3c645ad925561037e341515938460001461039257600160ff19815416176001555b60405192808452830190610632565b9260208201523460408201528033930390a2005b60ff196001541660015561036f565b634e487b7160e01b600052601160045260246000fd5b9050830151846102ee565b60008080526000805160206106748339815191529250601f198416905b81811061041a57509083600194939210610401575b5050811b01600055610303565b85015160001960f88460031b161c1916905584806103f4565b9192602060018192868a0151815501940192016103df565b60008052601f820160051c600080516020610674833981519152019060208310610488575b601f0160051c60008051602061067483398151915201905b81811061047c57506102d7565b6000815560010161046f565b6000805160206106748339815191529150610457565b634e487b7160e01b600052604160045260246000fd5b3461013d57600036600319011261013d576020600254604051908152f35b3461013d57600036600319011261013d576040517f00000000000000000000000000000000000000000000000000000000000000006001600160a01b03168152602090f35b3461013d57600036600319011261013d577f00000000000000000000000000000000000000000000000000000000000000006001600160a01b03811633036105a95760008080809347905af13d156105a4573d610573816105dc565b9061058160405192836105ba565b8152600060203d92013e5b1561059357005b63786b183560e11b60005260046000fd5b61058c565b631ad9988b60e01b60005260046000fd5b90601f8019910116810190811067ffffffffffffffff82111761049e57604052565b67ffffffffffffffff811161049e57601f01601f191660200190565b90600182811c92168015610628575b602083101461061257565b634e487b7160e01b600052602260045260246000fd5b91607f1691610607565b919082519283825260005b84811061065e575050826000602080949584010152601f8019910116010190565b8060208092840101518282860101520161063d56fe290decd9548b62a8d60345a988386fc84ba6bc95484008f6362f93160ef3e563a264697066735822122018999d783e6945c2c96dd3c4f8487d44eab036b9e94b0bd8e5a064301672544164736f6c634300081c0033",
  "devdoc": {
    "author": "BuidlGuidl",
    "kind": "dev",
    "methods": {
      "setGreeting(string)": {
        "params": {
          "_newGreeting": "(string memory) - new greeting to save on the contract"
        }
      }
    },
    "version": 1
  },
  "userdoc": {
    "kind": "user",
    "methods": {
      "setGreeting(string)": {
        "notice": "Function that allows anyone to change the state variable \"greeting\" of the contract and increase the counters"
      },
      "withdraw()": {
        "notice": "Function that allows the owner to withdraw all the Ether in the contract The function can only be called by the owner of the contract as defined by the isOwner modifier"
      }
    },
    "notice": "A smart contract that allows changing a state variable of the contract and tracking the changes It also allows the owner to withdraw the Ether in the contract",
    "version": 1
  },
  "storageLayout": {
    "storage": [
      {
        "astId": 8,
        "contract": "contracts/YourContract.sol:YourContract",
        "label": "greeting",
        "offset": 0,
        "slot": "0",
        "type": "t_string_storage"
      },
      {
        "astId": 11,
        "contract": "contracts/YourContract.sol:YourContract",
        "label": "premium",
        "offset": 0,
        "slot": "1",
        "type": "t_bool"
      },
      {
        "astId": 14,
        "contract": "contracts/YourContract.sol:YourContract",
        "label": "totalCounter",
        "offset": 0,
        "slot": "2",
        "type": "t_uint256"
      },
      {
        "astId": 18,
        "contract": "contracts/YourContract.sol:YourContract",
        "label": "userGreetingCounter",
        "offset": 0,
        "slot": "3",
        "type": "t_mapping(t_address,t_uint256)"
      }
    ],
    "types": {
      "t_address": {
        "encoding": "inplace",
        "label": "address",
        "numberOfBytes": "20"
      },
      "t_bool": {
        "encoding": "inplace",
        "label": "bool",
        "numberOfBytes": "1"
      },
      "t_mapping(t_address,t_uint256)": {
        "encoding": "mapping",
        "key": "t_address",
        "label": "mapping(address => uint256)",
        "numberOfBytes": "32",
        "value": "t_uint256"
      },
      "t_string_storage": {
        "encoding": "bytes",
        "label": "string",
        "numberOfBytes": "32"
      },
      "t_uint256": {
        "encoding": "inplace",
        "label": "uint256",
        "numberOfBytes": "32"
      }
    }
  }
}